{
  "contractName": "StarNotary",
  "abi": [
    {
      "inputs": [],
      "stateMutability": "nonpayable",
      "type": "constructor"
    },
    {
      "anonymous": false,
      "inputs": [
        {
          "indexed": true,
          "internalType": "address",
          "name": "owner",
          "type": "address"
        },
        {
          "indexed": true,
          "internalType": "address",
          "name": "approved",
          "type": "address"
        },
        {
          "indexed": true,
          "internalType": "uint256",
          "name": "tokenId",
          "type": "uint256"
        }
      ],
      "name": "Approval",
      "type": "event"
    },
    {
      "anonymous": false,
      "inputs": [
        {
          "indexed": true,
          "internalType": "address",
          "name": "owner",
          "type": "address"
        },
        {
          "indexed": true,
          "internalType": "address",
          "name": "operator",
          "type": "address"
        },
        {
          "indexed": false,
          "internalType": "bool",
          "name": "approved",
          "type": "bool"
        }
      ],
      "name": "ApprovalForAll",
      "type": "event"
    },
    {
      "anonymous": false,
      "inputs": [
        {
          "indexed": true,
          "internalType": "address",
          "name": "from",
          "type": "address"
        },
        {
          "indexed": true,
          "internalType": "address",
          "name": "to",
          "type": "address"
        },
        {
          "indexed": true,
          "internalType": "uint256",
          "name": "tokenId",
          "type": "uint256"
        }
      ],
      "name": "Transfer",
      "type": "event"
    },
    {
      "inputs": [
        {
          "internalType": "address",
          "name": "to",
          "type": "address"
        },
        {
          "internalType": "uint256",
          "name": "tokenId",
          "type": "uint256"
        }
      ],
      "name": "approve",
      "outputs": [],
      "stateMutability": "nonpayable",
      "type": "function"
    },
    {
      "inputs": [
        {
          "internalType": "address",
          "name": "owner",
          "type": "address"
        }
      ],
      "name": "balanceOf",
      "outputs": [
        {
          "internalType": "uint256",
          "name": "",
          "type": "uint256"
        }
      ],
      "stateMutability": "view",
      "type": "function",
      "constant": true
    },
    {
      "inputs": [
        {
          "internalType": "uint256",
          "name": "tokenId",
          "type": "uint256"
        }
      ],
      "name": "getApproved",
      "outputs": [
        {
          "internalType": "address",
          "name": "",
          "type": "address"
        }
      ],
      "stateMutability": "view",
      "type": "function",
      "constant": true
    },
    {
      "inputs": [
        {
          "internalType": "address",
          "name": "owner",
          "type": "address"
        },
        {
          "internalType": "address",
          "name": "operator",
          "type": "address"
        }
      ],
      "name": "isApprovedForAll",
      "outputs": [
        {
          "internalType": "bool",
          "name": "",
          "type": "bool"
        }
      ],
      "stateMutability": "view",
      "type": "function",
      "constant": true
    },
    {
      "inputs": [],
      "name": "name",
      "outputs": [
        {
          "internalType": "string",
          "name": "",
          "type": "string"
        }
      ],
      "stateMutability": "view",
      "type": "function",
      "constant": true
    },
    {
      "inputs": [
        {
          "internalType": "uint256",
          "name": "tokenId",
          "type": "uint256"
        }
      ],
      "name": "ownerOf",
      "outputs": [
        {
          "internalType": "address",
          "name": "",
          "type": "address"
        }
      ],
      "stateMutability": "view",
      "type": "function",
      "constant": true
    },
    {
      "inputs": [
        {
          "internalType": "address",
          "name": "from",
          "type": "address"
        },
        {
          "internalType": "address",
          "name": "to",
          "type": "address"
        },
        {
          "internalType": "uint256",
          "name": "tokenId",
          "type": "uint256"
        }
      ],
      "name": "safeTransferFrom",
      "outputs": [],
      "stateMutability": "nonpayable",
      "type": "function"
    },
    {
      "inputs": [
        {
          "internalType": "address",
          "name": "from",
          "type": "address"
        },
        {
          "internalType": "address",
          "name": "to",
          "type": "address"
        },
        {
          "internalType": "uint256",
          "name": "tokenId",
          "type": "uint256"
        },
        {
          "internalType": "bytes",
          "name": "_data",
          "type": "bytes"
        }
      ],
      "name": "safeTransferFrom",
      "outputs": [],
      "stateMutability": "nonpayable",
      "type": "function"
    },
    {
      "inputs": [
        {
          "internalType": "address",
          "name": "operator",
          "type": "address"
        },
        {
          "internalType": "bool",
          "name": "approved",
          "type": "bool"
        }
      ],
      "name": "setApprovalForAll",
      "outputs": [],
      "stateMutability": "nonpayable",
      "type": "function"
    },
    {
      "inputs": [
        {
          "internalType": "uint256",
          "name": "",
          "type": "uint256"
        }
      ],
      "name": "starsForSale",
      "outputs": [
        {
          "internalType": "uint256",
          "name": "",
          "type": "uint256"
        }
      ],
      "stateMutability": "view",
      "type": "function",
      "constant": true
    },
    {
      "inputs": [
        {
          "internalType": "bytes4",
          "name": "interfaceId",
          "type": "bytes4"
        }
      ],
      "name": "supportsInterface",
      "outputs": [
        {
          "internalType": "bool",
          "name": "",
          "type": "bool"
        }
      ],
      "stateMutability": "view",
      "type": "function",
      "constant": true
    },
    {
      "inputs": [],
      "name": "symbol",
      "outputs": [
        {
          "internalType": "string",
          "name": "",
          "type": "string"
        }
      ],
      "stateMutability": "view",
      "type": "function",
      "constant": true
    },
    {
      "inputs": [
        {
          "internalType": "uint256",
          "name": "",
          "type": "uint256"
        }
      ],
      "name": "tokenIdToStarInfo",
      "outputs": [
        {
          "internalType": "string",
          "name": "name",
          "type": "string"
        }
      ],
      "stateMutability": "view",
      "type": "function",
      "constant": true
    },
    {
      "inputs": [
        {
          "internalType": "uint256",
          "name": "tokenId",
          "type": "uint256"
        }
      ],
      "name": "tokenURI",
      "outputs": [
        {
          "internalType": "string",
          "name": "",
          "type": "string"
        }
      ],
      "stateMutability": "view",
      "type": "function",
      "constant": true
    },
    {
      "inputs": [
        {
          "internalType": "address",
          "name": "from",
          "type": "address"
        },
        {
          "internalType": "address",
          "name": "to",
          "type": "address"
        },
        {
          "internalType": "uint256",
          "name": "tokenId",
          "type": "uint256"
        }
      ],
      "name": "transferFrom",
      "outputs": [],
      "stateMutability": "nonpayable",
      "type": "function"
    },
    {
      "inputs": [
        {
          "internalType": "string",
          "name": "_name",
          "type": "string"
        },
        {
          "internalType": "uint256",
          "name": "_tokenId",
          "type": "uint256"
        }
      ],
      "name": "createStar",
      "outputs": [],
      "stateMutability": "nonpayable",
      "type": "function"
    },
    {
      "inputs": [
        {
          "internalType": "uint256",
          "name": "_tokenId",
          "type": "uint256"
        },
        {
          "internalType": "uint256",
          "name": "_price",
          "type": "uint256"
        }
      ],
      "name": "putStarUpForSale",
      "outputs": [],
      "stateMutability": "nonpayable",
      "type": "function"
    },
    {
      "inputs": [
        {
          "internalType": "address",
          "name": "buyer",
          "type": "address"
        },
        {
          "internalType": "uint256",
          "name": "_tokenId",
          "type": "uint256"
        }
      ],
      "name": "approveBuyer",
      "outputs": [],
      "stateMutability": "nonpayable",
      "type": "function"
    },
    {
      "inputs": [],
      "name": "nameCall",
      "outputs": [
        {
          "internalType": "string",
          "name": "",
          "type": "string"
        }
      ],
      "stateMutability": "view",
      "type": "function",
      "constant": true
    },
    {
      "inputs": [],
      "name": "symbolCall",
      "outputs": [
        {
          "internalType": "string",
          "name": "",
          "type": "string"
        }
      ],
      "stateMutability": "view",
      "type": "function",
      "constant": true
    },
    {
      "inputs": [
        {
          "internalType": "uint256",
          "name": "_tokenId",
          "type": "uint256"
        }
      ],
      "name": "buyStar",
      "outputs": [],
      "stateMutability": "payable",
      "type": "function",
      "payable": true
    },
    {
      "inputs": [
        {
          "internalType": "uint256",
          "name": "_tokenId",
          "type": "uint256"
        }
      ],
      "name": "lookuptokenIdToStarInfo",
      "outputs": [
        {
          "internalType": "string",
          "name": "",
          "type": "string"
        }
      ],
      "stateMutability": "view",
      "type": "function",
      "constant": true
    },
    {
      "inputs": [
        {
          "internalType": "uint256",
          "name": "_tokenId1",
          "type": "uint256"
        },
        {
          "internalType": "uint256",
          "name": "_tokenId2",
          "type": "uint256"
        }
      ],
      "name": "exchangeStars",
      "outputs": [],
      "stateMutability": "nonpayable",
      "type": "function"
    },
    {
      "inputs": [
        {
          "internalType": "address",
          "name": "_to1",
          "type": "address"
        },
        {
          "internalType": "uint256",
          "name": "_tokenId",
          "type": "uint256"
        }
      ],
      "name": "transferStar",
      "outputs": [],
      "stateMutability": "nonpayable",
      "type": "function"
    }
  ],
  "bytecode": "0x60806040523480156200001157600080fd5b506040518060400160405280600581526020017f53746172730000000000000000000000000000000000000000000000000000008152506040518060400160405280600281526020017f5353000000000000000000000000000000000000000000000000000000000000815250816000908051906020019062000096929190620000b8565b508060019080519060200190620000af929190620000b8565b505050620001cd565b828054620000c69062000168565b90600052602060002090601f016020900481019282620000ea576000855562000136565b82601f106200010557805160ff191683800117855562000136565b8280016001018555821562000136579182015b828111156200013557825182559160200191906001019062000118565b5b50905062000145919062000149565b5090565b5b80821115620001645760008160009055506001016200014a565b5090565b600060028204905060018216806200018157607f821691505b602082108114156200019857620001976200019e565b5b50919050565b7f4e487b7100000000000000000000000000000000000000000000000000000000600052602260045260246000fd5b61333080620001dd6000396000f3fe60806040526004361061014b5760003560e01c80636bcba8eb116100b6578063b88d4fde1161006f578063b88d4fde146104b7578063c87b56dd146104e0578063e3305bd31461051d578063e7152a5c14610546578063e985e9c51461056f578063ea81f800146105ac5761014b565b80636bcba8eb1461039557806370a08231146103c057806377ffb365146103fd57806395d89b411461043a5780639697c0a114610465578063a22cb4651461048e5761014b565b80631967fd98116101085780631967fd981461028457806323b872dd146102c15780632f1c34ef146102ea578063316a43611461030657806342842e0e1461032f5780636352211e146103585761014b565b806301ffc9a7146101505780630564b1301461018d57806306fdde03146101ca578063081812fc146101f5578063095ea7b31461023257806315e0afa51461025b575b600080fd5b34801561015c57600080fd5b5061017760048036038101906101729190612209565b6105d7565b6040516101849190612708565b60405180910390f35b34801561019957600080fd5b506101b460048036038101906101af91906122af565b6106b9565b6040516101c191906129a5565b60405180910390f35b3480156101d657600080fd5b506101df6106d1565b6040516101ec9190612723565b60405180910390f35b34801561020157600080fd5b5061021c600480360381019061021791906122af565b610763565b60405161022991906126a1565b60405180910390f35b34801561023e57600080fd5b50610259600480360381019061025491906121cd565b6107e8565b005b34801561026757600080fd5b50610282600480360381019061027d91906122d8565b610900565b005b34801561029057600080fd5b506102ab60048036038101906102a691906122af565b6109da565b6040516102b89190612723565b60405180910390f35b3480156102cd57600080fd5b506102e860048036038101906102e391906120c7565b610a80565b005b61030460048036038101906102ff91906122af565b610ae0565b005b34801561031257600080fd5b5061032d600480360381019061032891906122d8565b610c5d565b005b34801561033b57600080fd5b50610356600480360381019061035191906120c7565b610cef565b005b34801561036457600080fd5b5061037f600480360381019061037a91906122af565b610d0f565b60405161038c91906126a1565b60405180910390f35b3480156103a157600080fd5b506103aa610dc1565b6040516103b79190612723565b60405180910390f35b3480156103cc57600080fd5b506103e760048036038101906103e29190612062565b610dd0565b6040516103f491906129a5565b60405180910390f35b34801561040957600080fd5b50610424600480360381019061041f91906122af565b610e88565b6040516104319190612723565b60405180910390f35b34801561044657600080fd5b5061044f610f60565b60405161045c9190612723565b60405180910390f35b34801561047157600080fd5b5061048c6004803603810190610487919061225b565b610ff2565b005b34801561049a57600080fd5b506104b560048036038101906104b09190612191565b611048565b005b3480156104c357600080fd5b506104de60048036038101906104d99190612116565b6111c9565b005b3480156104ec57600080fd5b50610507600480360381019061050291906122af565b61122b565b6040516105149190612723565b60405180910390f35b34801561052957600080fd5b50610544600480360381019061053f91906121cd565b6112d2565b005b34801561055257600080fd5b5061056d600480360381019061056891906121cd565b6112e0565b005b34801561057b57600080fd5b506105966004803603810190610591919061208b565b61136b565b6040516105a39190612708565b60405180910390f35b3480156105b857600080fd5b506105c16113ff565b6040516105ce9190612723565b60405180910390f35b60007f80ac58cd000000000000000000000000000000000000000000000000000000007bffffffffffffffffffffffffffffffffffffffffffffffffffffffff1916827bffffffffffffffffffffffffffffffffffffffffffffffffffffffff191614806106a257507f5b5e139f000000000000000000000000000000000000000000000000000000007bffffffffffffffffffffffffffffffffffffffffffffffffffffffff1916827bffffffffffffffffffffffffffffffffffffffffffffffffffffffff1916145b806106b257506106b18261140e565b5b9050919050565b60076020528060005260406000206000915090505481565b6060600080546106e090612bfb565b80601f016020809104026020016040519081016040528092919081815260200182805461070c90612bfb565b80156107595780601f1061072e57610100808354040283529160200191610759565b820191906000526020600020905b81548152906001019060200180831161073c57829003601f168201915b5050505050905090565b600061076e82611478565b6107ad576040517f08c379a00000000000000000000000000000000000000000000000000000000081526004016107a4906128e5565b60405180910390fd5b6004600083815260200190815260200160002060009054906101000a900473ffffffffffffffffffffffffffffffffffffffff169050919050565b60006107f382610d0f565b90508073ffffffffffffffffffffffffffffffffffffffff168373ffffffffffffffffffffffffffffffffffffffff161415610864576040517f08c379a000000000000000000000000000000000000000000000000000000000815260040161085b90612945565b60405180910390fd5b8073ffffffffffffffffffffffffffffffffffffffff166108836114e4565b73ffffffffffffffffffffffffffffffffffffffff1614806108b257506108b1816108ac6114e4565b61136b565b5b6108f1576040517f08c379a00000000000000000000000000000000000000000000000000000000081526004016108e890612845565b60405180910390fd5b6108fb83836114ec565b505050565b600061090b83610d0f565b9050600061091883610d0f565b90508173ffffffffffffffffffffffffffffffffffffffff163373ffffffffffffffffffffffffffffffffffffffff16148061097f57508073ffffffffffffffffffffffffffffffffffffffff163373ffffffffffffffffffffffffffffffffffffffff16145b6109be576040517f08c379a00000000000000000000000000000000000000000000000000000000081526004016109b590612865565b60405180910390fd5b6109c9828286610a80565b6109d4818385610a80565b50505050565b60066020528060005260406000206000915090508060000180546109fd90612bfb565b80601f0160208091040260200160405190810160405280929190818152602001828054610a2990612bfb565b8015610a765780601f10610a4b57610100808354040283529160200191610a76565b820191906000526020600020905b815481529060010190602001808311610a5957829003601f168201915b5050505050905081565b610a91610a8b6114e4565b826115a5565b610ad0576040517f08c379a0000000000000000000000000000000000000000000000000000000008152600401610ac790612965565b60405180910390fd5b610adb838383611683565b505050565b6000600760008381526020019081526020016000205411610b36576040517f08c379a0000000000000000000000000000000000000000000000000000000008152600401610b2d90612825565b60405180910390fd5b6000600760008381526020019081526020016000205490506000610b5983610d0f565b9050813411610b9d576040517f08c379a0000000000000000000000000000000000000000000000000000000008152600401610b94906127e5565b60405180910390fd5b610ba8813385610a80565b6000610bb3826118df565b90508073ffffffffffffffffffffffffffffffffffffffff166108fc849081150290604051600060405180830381858888f19350505050158015610bfb573d6000803e3d6000fd5b5082341115610c57573373ffffffffffffffffffffffffffffffffffffffff166108fc8434610c2a9190612b11565b9081150290604051600060405180830381858888f19350505050158015610c55573d6000803e3d6000fd5b505b50505050565b3373ffffffffffffffffffffffffffffffffffffffff16610c7d83610d0f565b73ffffffffffffffffffffffffffffffffffffffff1614610cd3576040517f08c379a0000000000000000000000000000000000000000000000000000000008152600401610cca90612785565b60405180910390fd5b8060076000848152602001908152602001600020819055505050565b610d0a838383604051806020016040528060008152506111c9565b505050565b6000806002600084815260200190815260200160002060009054906101000a900473ffffffffffffffffffffffffffffffffffffffff169050600073ffffffffffffffffffffffffffffffffffffffff168173ffffffffffffffffffffffffffffffffffffffff161415610db8576040517f08c379a0000000000000000000000000000000000000000000000000000000008152600401610daf906128a5565b60405180910390fd5b80915050919050565b6060610dcb610f60565b905090565b60008073ffffffffffffffffffffffffffffffffffffffff168273ffffffffffffffffffffffffffffffffffffffff161415610e41576040517f08c379a0000000000000000000000000000000000000000000000000000000008152600401610e3890612885565b60405180910390fd5b600360008373ffffffffffffffffffffffffffffffffffffffff1673ffffffffffffffffffffffffffffffffffffffff168152602001908152602001600020549050919050565b60606000600660008481526020019081526020016000206000018054610ead90612bfb565b90501415610eba57600080fd5b600660008381526020019081526020016000206000018054610edb90612bfb565b80601f0160208091040260200160405190810160405280929190818152602001828054610f0790612bfb565b8015610f545780601f10610f2957610100808354040283529160200191610f54565b820191906000526020600020905b815481529060010190602001808311610f3757829003601f168201915b50505050509050919050565b606060018054610f6f90612bfb565b80601f0160208091040260200160405190810160405280929190818152602001828054610f9b90612bfb565b8015610fe85780601f10610fbd57610100808354040283529160200191610fe8565b820191906000526020600020905b815481529060010190602001808311610fcb57829003601f168201915b5050505050905090565b6000604051806020016040528084815250905080600660008481526020019081526020016000206000820151816000019080519060200190611035929190611e86565b5090505061104333836118e9565b505050565b6110506114e4565b73ffffffffffffffffffffffffffffffffffffffff168273ffffffffffffffffffffffffffffffffffffffff1614156110be576040517f08c379a00000000000000000000000000000000000000000000000000000000081526004016110b5906127c5565b60405180910390fd5b80600560006110cb6114e4565b73ffffffffffffffffffffffffffffffffffffffff1673ffffffffffffffffffffffffffffffffffffffff16815260200190815260200160002060008473ffffffffffffffffffffffffffffffffffffffff1673ffffffffffffffffffffffffffffffffffffffff16815260200190815260200160002060006101000a81548160ff0219169083151502179055508173ffffffffffffffffffffffffffffffffffffffff166111786114e4565b73ffffffffffffffffffffffffffffffffffffffff167f17307eab39ab6107e8899845ad3d59bd9653f200f220920489ca2b5937696c31836040516111bd9190612708565b60405180910390a35050565b6111da6111d46114e4565b836115a5565b611219576040517f08c379a000000000000000000000000000000000000000000000000000000000815260040161121090612965565b60405180910390fd5b61122584848484611ab7565b50505050565b606061123682611478565b611275576040517f08c379a000000000000000000000000000000000000000000000000000000000815260040161126c90612925565b60405180910390fd5b600061127f611b13565b9050600081511161129f57604051806020016040528060008152506112ca565b806112a984611b2a565b6040516020016112ba92919061267d565b6040516020818303038152906040525b915050919050565b6112dc82826107e8565b5050565b60006112eb82610d0f565b90503373ffffffffffffffffffffffffffffffffffffffff168173ffffffffffffffffffffffffffffffffffffffff161461135b576040517f08c379a000000000000000000000000000000000000000000000000000000000815260040161135290612985565b60405180910390fd5b611366338484610a80565b505050565b6000600560008473ffffffffffffffffffffffffffffffffffffffff1673ffffffffffffffffffffffffffffffffffffffff16815260200190815260200160002060008373ffffffffffffffffffffffffffffffffffffffff1673ffffffffffffffffffffffffffffffffffffffff16815260200190815260200160002060009054906101000a900460ff16905092915050565b60606114096106d1565b905090565b60007f01ffc9a7000000000000000000000000000000000000000000000000000000007bffffffffffffffffffffffffffffffffffffffffffffffffffffffff1916827bffffffffffffffffffffffffffffffffffffffffffffffffffffffff1916149050919050565b60008073ffffffffffffffffffffffffffffffffffffffff166002600084815260200190815260200160002060009054906101000a900473ffffffffffffffffffffffffffffffffffffffff1673ffffffffffffffffffffffffffffffffffffffff1614159050919050565b600033905090565b816004600083815260200190815260200160002060006101000a81548173ffffffffffffffffffffffffffffffffffffffff021916908373ffffffffffffffffffffffffffffffffffffffff160217905550808273ffffffffffffffffffffffffffffffffffffffff1661155f83610d0f565b73ffffffffffffffffffffffffffffffffffffffff167f8c5be1e5ebec7d5bd14f71427d1e84f3dd0314c0f7b2291e5b200ac8c7c3b92560405160405180910390a45050565b60006115b082611478565b6115ef576040517f08c379a00000000000000000000000000000000000000000000000000000000081526004016115e690612805565b60405180910390fd5b60006115fa83610d0f565b90508073ffffffffffffffffffffffffffffffffffffffff168473ffffffffffffffffffffffffffffffffffffffff16148061166957508373ffffffffffffffffffffffffffffffffffffffff1661165184610763565b73ffffffffffffffffffffffffffffffffffffffff16145b8061167a5750611679818561136b565b5b91505092915050565b8273ffffffffffffffffffffffffffffffffffffffff166116a382610d0f565b73ffffffffffffffffffffffffffffffffffffffff16146116f9576040517f08c379a00000000000000000000000000000000000000000000000000000000081526004016116f090612905565b60405180910390fd5b600073ffffffffffffffffffffffffffffffffffffffff168273ffffffffffffffffffffffffffffffffffffffff161415611769576040517f08c379a0000000000000000000000000000000000000000000000000000000008152600401611760906127a5565b60405180910390fd5b611774838383611cd7565b61177f6000826114ec565b6001600360008573ffffffffffffffffffffffffffffffffffffffff1673ffffffffffffffffffffffffffffffffffffffff16815260200190815260200160002060008282546117cf9190612b11565b925050819055506001600360008473ffffffffffffffffffffffffffffffffffffffff1673ffffffffffffffffffffffffffffffffffffffff16815260200190815260200160002060008282546118269190612a8a565b92505081905550816002600083815260200190815260200160002060006101000a81548173ffffffffffffffffffffffffffffffffffffffff021916908373ffffffffffffffffffffffffffffffffffffffff160217905550808273ffffffffffffffffffffffffffffffffffffffff168473ffffffffffffffffffffffffffffffffffffffff167fddf252ad1be2c89b69c2b068fc378daa952ba7f163c4a11628f55a4df523b3ef60405160405180910390a4505050565b6000819050919050565b600073ffffffffffffffffffffffffffffffffffffffff168273ffffffffffffffffffffffffffffffffffffffff161415611959576040517f08c379a0000000000000000000000000000000000000000000000000000000008152600401611950906128c5565b60405180910390fd5b61196281611478565b156119a2576040517f08c379a000000000000000000000000000000000000000000000000000000000815260040161199990612765565b60405180910390fd5b6119ae60008383611cd7565b6001600360008473ffffffffffffffffffffffffffffffffffffffff1673ffffffffffffffffffffffffffffffffffffffff16815260200190815260200160002060008282546119fe9190612a8a565b92505081905550816002600083815260200190815260200160002060006101000a81548173ffffffffffffffffffffffffffffffffffffffff021916908373ffffffffffffffffffffffffffffffffffffffff160217905550808273ffffffffffffffffffffffffffffffffffffffff16600073ffffffffffffffffffffffffffffffffffffffff167fddf252ad1be2c89b69c2b068fc378daa952ba7f163c4a11628f55a4df523b3ef60405160405180910390a45050565b611ac2848484611683565b611ace84848484611cdc565b611b0d576040517f08c379a0000000000000000000000000000000000000000000000000000000008152600401611b0490612745565b60405180910390fd5b50505050565b606060405180602001604052806000815250905090565b60606000821415611b72576040518060400160405280600181526020017f30000000000000000000000000000000000000000000000000000000000000008152509050611cd2565b600082905060005b60008214611ba4578080611b8d90612c5e565b915050600a82611b9d9190612ae0565b9150611b7a565b60008167ffffffffffffffff811115611be6577f4e487b7100000000000000000000000000000000000000000000000000000000600052604160045260246000fd5b6040519080825280601f01601f191660200182016040528015611c185781602001600182028036833780820191505090505b5090505b60008514611ccb57600182611c319190612b11565b9150600a85611c409190612ca7565b6030611c4c9190612a8a565b60f81b818381518110611c88577f4e487b7100000000000000000000000000000000000000000000000000000000600052603260045260246000fd5b60200101907effffffffffffffffffffffffffffffffffffffffffffffffffffffffffffff1916908160001a905350600a85611cc49190612ae0565b9450611c1c565b8093505050505b919050565b505050565b6000611cfd8473ffffffffffffffffffffffffffffffffffffffff16611e73565b15611e66578373ffffffffffffffffffffffffffffffffffffffff1663150b7a02611d266114e4565b8786866040518563ffffffff1660e01b8152600401611d4894939291906126bc565b602060405180830381600087803b158015611d6257600080fd5b505af1925050508015611d9357506040513d601f19601f82011682018060405250810190611d909190612232565b60015b611e16573d8060008114611dc3576040519150601f19603f3d011682016040523d82523d6000602084013e611dc8565b606091505b50600081511415611e0e576040517f08c379a0000000000000000000000000000000000000000000000000000000008152600401611e0590612745565b60405180910390fd5b805181602001fd5b63150b7a0260e01b7bffffffffffffffffffffffffffffffffffffffffffffffffffffffff1916817bffffffffffffffffffffffffffffffffffffffffffffffffffffffff191614915050611e6b565b600190505b949350505050565b600080823b905060008111915050919050565b828054611e9290612bfb565b90600052602060002090601f016020900481019282611eb45760008555611efb565b82601f10611ecd57805160ff1916838001178555611efb565b82800160010185558215611efb579182015b82811115611efa578251825591602001919060010190611edf565b5b509050611f089190611f0c565b5090565b5b80821115611f25576000816000905550600101611f0d565b5090565b6000611f3c611f37846129e5565b6129c0565b905082815260208101848484011115611f5457600080fd5b611f5f848285612bb9565b509392505050565b6000611f7a611f7584612a16565b6129c0565b905082815260208101848484011115611f9257600080fd5b611f9d848285612bb9565b509392505050565b600081359050611fb48161329e565b92915050565b600081359050611fc9816132b5565b92915050565b600081359050611fde816132cc565b92915050565b600081519050611ff3816132cc565b92915050565b600082601f83011261200a57600080fd5b813561201a848260208601611f29565b91505092915050565b600082601f83011261203457600080fd5b8135612044848260208601611f67565b91505092915050565b60008135905061205c816132e3565b92915050565b60006020828403121561207457600080fd5b600061208284828501611fa5565b91505092915050565b6000806040838503121561209e57600080fd5b60006120ac85828601611fa5565b92505060206120bd85828601611fa5565b9150509250929050565b6000806000606084860312156120dc57600080fd5b60006120ea86828701611fa5565b93505060206120fb86828701611fa5565b925050604061210c8682870161204d565b9150509250925092565b6000806000806080858703121561212c57600080fd5b600061213a87828801611fa5565b945050602061214b87828801611fa5565b935050604061215c8782880161204d565b925050606085013567ffffffffffffffff81111561217957600080fd5b61218587828801611ff9565b91505092959194509250565b600080604083850312156121a457600080fd5b60006121b285828601611fa5565b92505060206121c385828601611fba565b9150509250929050565b600080604083850312156121e057600080fd5b60006121ee85828601611fa5565b92505060206121ff8582860161204d565b9150509250929050565b60006020828403121561221b57600080fd5b600061222984828501611fcf565b91505092915050565b60006020828403121561224457600080fd5b600061225284828501611fe4565b91505092915050565b6000806040838503121561226e57600080fd5b600083013567ffffffffffffffff81111561228857600080fd5b61229485828601612023565b92505060206122a58582860161204d565b9150509250929050565b6000602082840312156122c157600080fd5b60006122cf8482850161204d565b91505092915050565b600080604083850312156122eb57600080fd5b60006122f98582860161204d565b925050602061230a8582860161204d565b9150509250929050565b61231d81612b45565b82525050565b61232c81612b57565b82525050565b600061233d82612a47565b6123478185612a5d565b9350612357818560208601612bc8565b61236081612d94565b840191505092915050565b600061237682612a52565b6123808185612a6e565b9350612390818560208601612bc8565b61239981612d94565b840191505092915050565b60006123af82612a52565b6123b98185612a7f565b93506123c9818560208601612bc8565b80840191505092915050565b60006123e2603283612a6e565b91506123ed82612da5565b604082019050919050565b6000612405601c83612a6e565b915061241082612df4565b602082019050919050565b6000612428602b83612a6e565b915061243382612e1d565b604082019050919050565b600061244b602483612a6e565b915061245682612e6c565b604082019050919050565b600061246e601983612a6e565b915061247982612ebb565b602082019050919050565b6000612491600f83612a6e565b915061249c82612ee4565b602082019050919050565b60006124b4602c83612a6e565b91506124bf82612f0d565b604082019050919050565b60006124d7601e83612a6e565b91506124e282612f5c565b602082019050919050565b60006124fa603883612a6e565b915061250582612f85565b604082019050919050565b600061251d602683612a6e565b915061252882612fd4565b604082019050919050565b6000612540602a83612a6e565b915061254b82613023565b604082019050919050565b6000612563602983612a6e565b915061256e82613072565b604082019050919050565b6000612586602083612a6e565b9150612591826130c1565b602082019050919050565b60006125a9602c83612a6e565b91506125b4826130ea565b604082019050919050565b60006125cc602983612a6e565b91506125d782613139565b604082019050919050565b60006125ef602f83612a6e565b91506125fa82613188565b604082019050919050565b6000612612602183612a6e565b915061261d826131d7565b604082019050919050565b6000612635603183612a6e565b915061264082613226565b604082019050919050565b6000612658601783612a6e565b915061266382613275565b602082019050919050565b61267781612baf565b82525050565b600061268982856123a4565b915061269582846123a4565b91508190509392505050565b60006020820190506126b66000830184612314565b92915050565b60006080820190506126d16000830187612314565b6126de6020830186612314565b6126eb604083018561266e565b81810360608301526126fd8184612332565b905095945050505050565b600060208201905061271d6000830184612323565b92915050565b6000602082019050818103600083015261273d818461236b565b905092915050565b6000602082019050818103600083015261275e816123d5565b9050919050565b6000602082019050818103600083015261277e816123f8565b9050919050565b6000602082019050818103600083015261279e8161241b565b9050919050565b600060208201905081810360008301526127be8161243e565b9050919050565b600060208201905081810360008301526127de81612461565b9050919050565b600060208201905081810360008301526127fe81612484565b9050919050565b6000602082019050818103600083015261281e816124a7565b9050919050565b6000602082019050818103600083015261283e816124ca565b9050919050565b6000602082019050818103600083015261285e816124ed565b9050919050565b6000602082019050818103600083015261287e81612510565b9050919050565b6000602082019050818103600083015261289e81612533565b9050919050565b600060208201905081810360008301526128be81612556565b9050919050565b600060208201905081810360008301526128de81612579565b9050919050565b600060208201905081810360008301526128fe8161259c565b9050919050565b6000602082019050818103600083015261291e816125bf565b9050919050565b6000602082019050818103600083015261293e816125e2565b9050919050565b6000602082019050818103600083015261295e81612605565b9050919050565b6000602082019050818103600083015261297e81612628565b9050919050565b6000602082019050818103600083015261299e8161264b565b9050919050565b60006020820190506129ba600083018461266e565b92915050565b60006129ca6129db565b90506129d68282612c2d565b919050565b6000604051905090565b600067ffffffffffffffff821115612a00576129ff612d65565b5b612a0982612d94565b9050602081019050919050565b600067ffffffffffffffff821115612a3157612a30612d65565b5b612a3a82612d94565b9050602081019050919050565b600081519050919050565b600081519050919050565b600082825260208201905092915050565b600082825260208201905092915050565b600081905092915050565b6000612a9582612baf565b9150612aa083612baf565b9250827fffffffffffffffffffffffffffffffffffffffffffffffffffffffffffffffff03821115612ad557612ad4612cd8565b5b828201905092915050565b6000612aeb82612baf565b9150612af683612baf565b925082612b0657612b05612d07565b5b828204905092915050565b6000612b1c82612baf565b9150612b2783612baf565b925082821015612b3a57612b39612cd8565b5b828203905092915050565b6000612b5082612b8f565b9050919050565b60008115159050919050565b60007fffffffff0000000000000000000000000000000000000000000000000000000082169050919050565b600073ffffffffffffffffffffffffffffffffffffffff82169050919050565b6000819050919050565b82818337600083830152505050565b60005b83811015612be6578082015181840152602081019050612bcb565b83811115612bf5576000848401525b50505050565b60006002820490506001821680612c1357607f821691505b60208210811415612c2757612c26612d36565b5b50919050565b612c3682612d94565b810181811067ffffffffffffffff82111715612c5557612c54612d65565b5b80604052505050565b6000612c6982612baf565b91507fffffffffffffffffffffffffffffffffffffffffffffffffffffffffffffffff821415612c9c57612c9b612cd8565b5b600182019050919050565b6000612cb282612baf565b9150612cbd83612baf565b925082612ccd57612ccc612d07565b5b828206905092915050565b7f4e487b7100000000000000000000000000000000000000000000000000000000600052601160045260246000fd5b7f4e487b7100000000000000000000000000000000000000000000000000000000600052601260045260246000fd5b7f4e487b7100000000000000000000000000000000000000000000000000000000600052602260045260246000fd5b7f4e487b7100000000000000000000000000000000000000000000000000000000600052604160045260246000fd5b6000601f19601f8301169050919050565b7f4552433732313a207472616e7366657220746f206e6f6e20455243373231526560008201527f63656976657220696d706c656d656e7465720000000000000000000000000000602082015250565b7f4552433732313a20746f6b656e20616c7265616479206d696e74656400000000600082015250565b7f4e6f207075656465732076656e64657220756e612065737472656c6c6120717560008201527f65206e6f20706f73656573000000000000000000000000000000000000000000602082015250565b7f4552433732313a207472616e7366657220746f20746865207a65726f2061646460008201527f7265737300000000000000000000000000000000000000000000000000000000602082015250565b7f4552433732313a20617070726f766520746f2063616c6c657200000000000000600082015250565b7f54652066616c7461206574686572210000000000000000000000000000000000600082015250565b7f4552433732313a206f70657261746f7220717565727920666f72206e6f6e657860008201527f697374656e7420746f6b656e0000000000000000000000000000000000000000602082015250565b7f4c612065737472656c6c61206e6f20657374612061206c612076656e74610000600082015250565b7f4552433732313a20617070726f76652063616c6c6572206973206e6f74206f7760008201527f6e6572206e6f7220617070726f76656420666f7220616c6c0000000000000000602082015250565b7f4e6f207469656e6573206e696e67756e20746f6b656e2064656c20696e74657260008201527f63616d62696f0000000000000000000000000000000000000000000000000000602082015250565b7f4552433732313a2062616c616e636520717565727920666f7220746865207a6560008201527f726f206164647265737300000000000000000000000000000000000000000000602082015250565b7f4552433732313a206f776e657220717565727920666f72206e6f6e657869737460008201527f656e7420746f6b656e0000000000000000000000000000000000000000000000602082015250565b7f4552433732313a206d696e7420746f20746865207a65726f2061646472657373600082015250565b7f4552433732313a20617070726f76656420717565727920666f72206e6f6e657860008201527f697374656e7420746f6b656e0000000000000000000000000000000000000000602082015250565b7f4552433732313a207472616e73666572206f6620746f6b656e2074686174206960008201527f73206e6f74206f776e0000000000000000000000000000000000000000000000602082015250565b7f4552433732314d657461646174613a2055524920717565727920666f72206e6f60008201527f6e6578697374656e7420746f6b656e0000000000000000000000000000000000602082015250565b7f4552433732313a20617070726f76616c20746f2063757272656e74206f776e6560008201527f7200000000000000000000000000000000000000000000000000000000000000602082015250565b7f4552433732313a207472616e736665722063616c6c6572206973206e6f74206f60008201527f776e6572206e6f7220617070726f766564000000000000000000000000000000602082015250565b7f4e6f207469656e6573206175746f72697a6163696f6e20000000000000000000600082015250565b6132a781612b45565b81146132b257600080fd5b50565b6132be81612b57565b81146132c957600080fd5b50565b6132d581612b63565b81146132e057600080fd5b50565b6132ec81612baf565b81146132f757600080fd5b5056fea26469706673582212204aad2c7a806d34ab2563a5e038b7914033e269c4adfacbeccd807a841dde113064736f6c63430008010033",
  "immutableReferences": {},
  "source": "//SPDX-License-Identifier: MIT\npragma solidity >=0.6.0;\n\nimport \"@openzeppelin/contracts/token/ERC721/ERC721.sol\";\n\ncontract StarNotary is ERC721 {\n    struct Star {\n        string name;\n    }\n\n    constructor() ERC721(\"Stars\", \"SS\") {}\n\n    mapping(uint256 => Star) public tokenIdToStarInfo;\n    mapping(uint256 => uint256) public starsForSale;\n\n    function createStar(string memory _name, uint256 _tokenId) public {\n        Star memory newStar = Star(_name);\n        tokenIdToStarInfo[_tokenId] = newStar;\n        _mint(msg.sender, _tokenId);\n    }\n\n    function putStarUpForSale(uint256 _tokenId, uint256 _price) public {\n        require(ownerOf(_tokenId) == msg.sender, \"No puedes vender una estrella que no posees\");\n        starsForSale[_tokenId] = _price;\n    }\n\n    function _make_payable(address x) internal pure returns (address payable) {        \n        return payable(x);\n    }\n\n    function approveBuyer(address buyer, uint256 _tokenId) public{                \n        approve(buyer, _tokenId);\n    }\n\n    function nameCall() public view returns (string memory) {\n        return name();\n    }\n\n    function symbolCall() public view returns (string memory){\n        return symbol();\n    }\n\n    function buyStar(uint256 _tokenId) public payable {\n        require(starsForSale[_tokenId] > 0, \"La estrella no esta a la venta\"); //Verifica que exista el map con el tokenId\n        uint256 starCost = starsForSale[_tokenId]; //Si existe el map sacamos el precio\n        address ownerAddress = ownerOf(_tokenId); //Funcion heredada, que busca en el Map _owners y devuelve el address\n        require(msg.value > starCost, \"Te falta ether!\"); // Confirma que que el valor de la transaccion sea mayor al precio. \n        transferFrom(ownerAddress, msg.sender, _tokenId); //Transfiere del owner, el token. \n        //1.- Revisa si el Owner es el mismo que el comprador, o si el comprador tiene aprobacin, o si el owner acepta\n        //    venderlo a todos. Si alguna de estas 3 condiciones est activa procede.\n        //2.- Realiza un _safeTransfer, que transfiere el token del actual dueo al nuevo dueo (owner)\n        address payable ownerAddressPayable = _make_payable(ownerAddress); //se asegura que el owner address sea \"payable\"\n        ownerAddressPayable.transfer(starCost); //El contrato le transfiere al dueo el costo del token\n        if(msg.value > starCost) {\n            payable(msg.sender).transfer(msg.value - starCost); // Si hay un saldo en la transaccion vuelve al comprador.\n        }\n    }\n\n    function lookuptokenIdToStarInfo (uint _tokenId) public view returns (string memory){\n        require(bytes(tokenIdToStarInfo[_tokenId].name).length != 0);\n        return tokenIdToStarInfo[_tokenId].name;\n    }\n\n    function exchangeStars(uint256 _tokenId1, uint256 _tokenId2) public {\n        //1. Passing to star tokenId you will need to check if the owner of _tokenId1 or _tokenId2 is the sender\n        //2. You don't have to check for the price of the token (star)\n        //3. Get the owner of the two tokens (ownerOf(_tokenId1), ownerOf(_tokenId1)\n        //4. Use _transferFrom function to exchange the tokens.\n        address ownerAddress1 = ownerOf(_tokenId1);\n        address ownerAddress2 = ownerOf(_tokenId2);\n        require(msg.sender == ownerAddress1 || msg.sender == ownerAddress2, \"No tienes ningun token del intercambio\");        \n        transferFrom(ownerAddress1, ownerAddress2, _tokenId1);\n        transferFrom(ownerAddress2, ownerAddress1, _tokenId2);        \n    }\n\n    function transferStar(address _to1, uint256 _tokenId) public {\n        //1. Check if the sender is the ownerOf(_tokenId)\n        //2. Use the transferFrom(from, to, tokenId); function to transfer the Star\n        address ownerAddress = ownerOf(_tokenId);\n        require(ownerAddress == msg.sender, \"No tienes autorizacion \");\n        transferFrom(msg.sender, _to1, _tokenId);\n    }\n}",
  "sourcePath": "/home/robinson/Documents/Repos/blockchain_course/reactBox/contracts/starNotary.sol",
  "compiler": {
    "name": "solc",
    "version": "0.8.1+commit.df193b15.Emscripten.clang"
  },
  "schemaVersion": "3.4.1",
  "updatedAt": "2021-08-05T03:00:08.636Z",
  "networkType": "ethereum",
  "devdoc": {
    "kind": "dev",
    "methods": {
      "approve(address,uint256)": {
        "details": "See {IERC721-approve}."
      },
      "balanceOf(address)": {
        "details": "See {IERC721-balanceOf}."
      },
      "getApproved(uint256)": {
        "details": "See {IERC721-getApproved}."
      },
      "isApprovedForAll(address,address)": {
        "details": "See {IERC721-isApprovedForAll}."
      },
      "name()": {
        "details": "See {IERC721Metadata-name}."
      },
      "ownerOf(uint256)": {
        "details": "See {IERC721-ownerOf}."
      },
      "safeTransferFrom(address,address,uint256)": {
        "details": "See {IERC721-safeTransferFrom}."
      },
      "safeTransferFrom(address,address,uint256,bytes)": {
        "details": "See {IERC721-safeTransferFrom}."
      },
      "setApprovalForAll(address,bool)": {
        "details": "See {IERC721-setApprovalForAll}."
      },
      "supportsInterface(bytes4)": {
        "details": "See {IERC165-supportsInterface}."
      },
      "symbol()": {
        "details": "See {IERC721Metadata-symbol}."
      },
      "tokenURI(uint256)": {
        "details": "See {IERC721Metadata-tokenURI}."
      },
      "transferFrom(address,address,uint256)": {
        "details": "See {IERC721-transferFrom}."
      }
    },
    "version": 1
  },
  "userdoc": {
    "kind": "user",
    "methods": {},
    "version": 1
  }
}